{
  "contractName": "ChainList",
  "abi": [
    {
      "anonymous": false,
      "inputs": [
        {
          "indexed": true,
          "internalType": "uint256",
          "name": "_id",
          "type": "uint256"
        },
        {
          "indexed": true,
          "internalType": "address",
          "name": "_seller",
          "type": "address"
        },
        {
          "indexed": true,
          "internalType": "address",
          "name": "_buyer",
          "type": "address"
        },
        {
          "indexed": false,
          "internalType": "string",
          "name": "_name",
          "type": "string"
        },
        {
          "indexed": false,
          "internalType": "uint256",
          "name": "_price",
          "type": "uint256"
        }
      ],
      "name": "LogBuyArticle",
      "type": "event"
    },
    {
      "anonymous": false,
      "inputs": [
        {
          "indexed": true,
          "internalType": "uint256",
          "name": "_id",
          "type": "uint256"
        },
        {
          "indexed": true,
          "internalType": "address",
          "name": "_seller",
          "type": "address"
        },
        {
          "indexed": false,
          "internalType": "string",
          "name": "_name",
          "type": "string"
        },
        {
          "indexed": false,
          "internalType": "uint256",
          "name": "_price",
          "type": "uint256"
        }
      ],
      "name": "LogSellArticle",
      "type": "event"
    },
    {
      "inputs": [
        {
          "internalType": "uint256",
          "name": "",
          "type": "uint256"
        }
      ],
      "name": "articles",
      "outputs": [
        {
          "internalType": "uint256",
          "name": "id",
          "type": "uint256"
        },
        {
          "internalType": "address payable",
          "name": "seller",
          "type": "address"
        },
        {
          "internalType": "address",
          "name": "buyer",
          "type": "address"
        },
        {
          "internalType": "string",
          "name": "name",
          "type": "string"
        },
        {
          "internalType": "string",
          "name": "description",
          "type": "string"
        },
        {
          "internalType": "uint256",
          "name": "price",
          "type": "uint256"
        }
      ],
      "stateMutability": "view",
      "type": "function",
      "constant": true
    },
    {
      "inputs": [
        {
          "internalType": "string",
          "name": "_name",
          "type": "string"
        },
        {
          "internalType": "string",
          "name": "_description",
          "type": "string"
        },
        {
          "internalType": "uint256",
          "name": "_price",
          "type": "uint256"
        }
      ],
      "name": "sellArticle",
      "outputs": [],
      "stateMutability": "nonpayable",
      "type": "function"
    },
    {
      "inputs": [],
      "name": "getNumberOfArticles",
      "outputs": [
        {
          "internalType": "uint256",
          "name": "",
          "type": "uint256"
        }
      ],
      "stateMutability": "view",
      "type": "function",
      "constant": true
    },
    {
      "inputs": [],
      "name": "getArticlesForSale",
      "outputs": [
        {
          "internalType": "uint256[]",
          "name": "",
          "type": "uint256[]"
        }
      ],
      "stateMutability": "view",
      "type": "function",
      "constant": true
    },
    {
      "inputs": [
        {
          "internalType": "uint256",
          "name": "_id",
          "type": "uint256"
        }
      ],
      "name": "buyArticle",
      "outputs": [],
      "stateMutability": "payable",
      "type": "function",
      "payable": true
    }
  ],
  "bytecode": "0x608060405234801561001057600080fd5b50611048806100206000396000f3fe60806040526004361061004a5760003560e01c80631cc4baa81461004f5780637f6be3da1461006b57806389da85d314610096578063d2609515146100c1578063edcfafe6146100ea575b600080fd5b610069600480360381019061006491906109b4565b61012c565b005b34801561007757600080fd5b5061008061039f565b60405161008d9190610a9f565b60405180910390f35b3480156100a257600080fd5b506100ab610572565b6040516100b89190610ad0565b60405180910390f35b3480156100cd57600080fd5b506100e860048036038101906100e39190610c31565b61057c565b005b3480156100f657600080fd5b50610111600480360381019061010c91906109b4565b61073b565b60405161012396959493929190610da6565b60405180910390f35b60006001541161013b57600080fd5b60008111801561014d57506001548111155b61015657600080fd5b60008060008381526020019081526020016000209050600073ffffffffffffffffffffffffffffffffffffffff168160020160009054906101000a900473ffffffffffffffffffffffffffffffffffffffff1673ffffffffffffffffffffffffffffffffffffffff16146101c957600080fd5b8060010160009054906101000a900473ffffffffffffffffffffffffffffffffffffffff1673ffffffffffffffffffffffffffffffffffffffff163373ffffffffffffffffffffffffffffffffffffffff16141561022657600080fd5b8060050154341461023657600080fd5b338160020160006101000a81548173ffffffffffffffffffffffffffffffffffffffff021916908373ffffffffffffffffffffffffffffffffffffffff1602179055508060010160009054906101000a900473ffffffffffffffffffffffffffffffffffffffff1673ffffffffffffffffffffffffffffffffffffffff166108fc349081150290604051600060405180830381858888f193505050501580156102e3573d6000803e3d6000fd5b508060020160009054906101000a900473ffffffffffffffffffffffffffffffffffffffff1673ffffffffffffffffffffffffffffffffffffffff168160010160009054906101000a900473ffffffffffffffffffffffffffffffffffffffff1673ffffffffffffffffffffffffffffffffffffffff16837f5d28bc06e6f0c45405abfe77bd77236c767f9bd9d044ae2d954a415a2b4823e0846003018560050154604051610393929190610f0b565b60405180910390a45050565b6060600060015467ffffffffffffffff8111156103bf576103be610b06565b5b6040519080825280602002602001820160405280156103ed5781602001602082028036833780820191505090505b509050600080600190505b60015481116104c257600073ffffffffffffffffffffffffffffffffffffffff1660008083815260200190815260200160002060020160009054906101000a900473ffffffffffffffffffffffffffffffffffffffff1673ffffffffffffffffffffffffffffffffffffffff1614156104af576000808281526020019081526020016000206000015483838151811061049457610493610f3b565b5b60200260200101818152505081806104ab90610f99565b9250505b80806104ba90610f99565b9150506103f8565b5060008167ffffffffffffffff8111156104df576104de610b06565b5b60405190808252806020026020018201604052801561050d5781602001602082028036833780820191505090505b50905060005b828110156105685783818151811061052e5761052d610f3b565b5b602002602001015182828151811061054957610548610f3b565b5b602002602001018181525050808061056090610f99565b915050610513565b5080935050505090565b6000600154905090565b6001600081548092919061058f90610f99565b91905055506040518060c0016040528060015481526020013373ffffffffffffffffffffffffffffffffffffffff168152602001600073ffffffffffffffffffffffffffffffffffffffff1681526020018481526020018381526020018281525060008060015481526020019081526020016000206000820151816000015560208201518160010160006101000a81548173ffffffffffffffffffffffffffffffffffffffff021916908373ffffffffffffffffffffffffffffffffffffffff16021790555060408201518160020160006101000a81548173ffffffffffffffffffffffffffffffffffffffff021916908373ffffffffffffffffffffffffffffffffffffffff16021790555060608201518160030190805190602001906106b89291906108c7565b5060808201518160040190805190602001906106d59291906108c7565b5060a082015181600501559050503373ffffffffffffffffffffffffffffffffffffffff166001547fe2ebb0c522a8b90a93f45a5dfd3c0e0516b81519fdf199efe51c474642fe8cec858460405161072e929190610fe2565b60405180910390a3505050565b60006020528060005260406000206000915090508060000154908060010160009054906101000a900473ffffffffffffffffffffffffffffffffffffffff16908060020160009054906101000a900473ffffffffffffffffffffffffffffffffffffffff16908060030180546107b090610e44565b80601f01602080910402602001604051908101604052809291908181526020018280546107dc90610e44565b80156108295780601f106107fe57610100808354040283529160200191610829565b820191906000526020600020905b81548152906001019060200180831161080c57829003601f168201915b50505050509080600401805461083e90610e44565b80601f016020809104026020016040519081016040528092919081815260200182805461086a90610e44565b80156108b75780601f1061088c576101008083540402835291602001916108b7565b820191906000526020600020905b81548152906001019060200180831161089a57829003601f168201915b5050505050908060050154905086565b8280546108d390610e44565b90600052602060002090601f0160209004810192826108f5576000855561093c565b82601f1061090e57805160ff191683800117855561093c565b8280016001018555821561093c579182015b8281111561093b578251825591602001919060010190610920565b5b509050610949919061094d565b5090565b5b8082111561096657600081600090555060010161094e565b5090565b6000604051905090565b600080fd5b600080fd5b6000819050919050565b6109918161097e565b811461099c57600080fd5b50565b6000813590506109ae81610988565b92915050565b6000602082840312156109ca576109c9610974565b5b60006109d88482850161099f565b91505092915050565b600081519050919050565b600082825260208201905092915050565b6000819050602082019050919050565b610a168161097e565b82525050565b6000610a288383610a0d565b60208301905092915050565b6000602082019050919050565b6000610a4c826109e1565b610a5681856109ec565b9350610a61836109fd565b8060005b83811015610a92578151610a798882610a1c565b9750610a8483610a34565b925050600181019050610a65565b5085935050505092915050565b60006020820190508181036000830152610ab98184610a41565b905092915050565b610aca8161097e565b82525050565b6000602082019050610ae56000830184610ac1565b92915050565b600080fd5b600080fd5b6000601f19601f8301169050919050565b7f4e487b7100000000000000000000000000000000000000000000000000000000600052604160045260246000fd5b610b3e82610af5565b810181811067ffffffffffffffff82111715610b5d57610b5c610b06565b5b80604052505050565b6000610b7061096a565b9050610b7c8282610b35565b919050565b600067ffffffffffffffff821115610b9c57610b9b610b06565b5b610ba582610af5565b9050602081019050919050565b82818337600083830152505050565b6000610bd4610bcf84610b81565b610b66565b905082815260208101848484011115610bf057610bef610af0565b5b610bfb848285610bb2565b509392505050565b600082601f830112610c1857610c17610aeb565b5b8135610c28848260208601610bc1565b91505092915050565b600080600060608486031215610c4a57610c49610974565b5b600084013567ffffffffffffffff811115610c6857610c67610979565b5b610c7486828701610c03565b935050602084013567ffffffffffffffff811115610c9557610c94610979565b5b610ca186828701610c03565b9250506040610cb28682870161099f565b9150509250925092565b600073ffffffffffffffffffffffffffffffffffffffff82169050919050565b6000610ce782610cbc565b9050919050565b610cf781610cdc565b82525050565b6000610d0882610cbc565b9050919050565b610d1881610cfd565b82525050565b600081519050919050565b600082825260208201905092915050565b60005b83811015610d58578082015181840152602081019050610d3d565b83811115610d67576000848401525b50505050565b6000610d7882610d1e565b610d828185610d29565b9350610d92818560208601610d3a565b610d9b81610af5565b840191505092915050565b600060c082019050610dbb6000830189610ac1565b610dc86020830188610cee565b610dd56040830187610d0f565b8181036060830152610de78186610d6d565b90508181036080830152610dfb8185610d6d565b9050610e0a60a0830184610ac1565b979650505050505050565b7f4e487b7100000000000000000000000000000000000000000000000000000000600052602260045260246000fd5b60006002820490506001821680610e5c57607f821691505b60208210811415610e7057610e6f610e15565b5b50919050565b60008190508160005260206000209050919050565b60008154610e9881610e44565b610ea28186610d29565b94506001821660008114610ebd5760018114610ecf57610f02565b60ff1983168652602086019350610f02565b610ed885610e76565b60005b83811015610efa57815481890152600182019150602081019050610edb565b808801955050505b50505092915050565b60006040820190508181036000830152610f258185610e8b565b9050610f346020830184610ac1565b9392505050565b7f4e487b7100000000000000000000000000000000000000000000000000000000600052603260045260246000fd5b7f4e487b7100000000000000000000000000000000000000000000000000000000600052601160045260246000fd5b6000610fa48261097e565b91507fffffffffffffffffffffffffffffffffffffffffffffffffffffffffffffffff821415610fd757610fd6610f6a565b5b600182019050919050565b60006040820190508181036000830152610ffc8185610d6d565b905061100b6020830184610ac1565b939250505056fea26469706673582212204f1e571c64f36b5525566ba48f928c2af5c6a609ee02a5202267608028636bcb64736f6c634300080a0033",
  "immutableReferences": {},
  "source": "//SPDX-License-Identifier: GPL-3.0\n\npragma solidity >=0.5.0 <0.9.0;\n\npragma experimental ABIEncoderV2;\n\ncontract ChainList {\n    // custom types\n    struct Article {\n        uint id;\n        address payable seller;\n        address buyer;\n        string name;\n        string description;\n        uint256 price;\n    }\n\n    // state variables\n    mapping (uint => Article) public articles;\n    uint articleCounter;\n\n    event LogSellArticle(\n        uint indexed _id,\n        address indexed _seller,\n        string _name,\n        uint _price\n    );\n\n    event LogBuyArticle(\n        uint indexed _id,\n        address indexed _seller,\n        address indexed _buyer,\n        string _name,\n        uint _price\n    );\n\n    function sellArticle(string memory _name, string memory _description, uint _price) public {\n        // a new article\n        articleCounter++;\n\n        // store this article\n        articles[articleCounter] = Article(\n            articleCounter,\n            payable(msg.sender),\n            address(0x0),\n            _name,\n            _description,\n            _price\n        );\n        emit LogSellArticle(articleCounter, msg.sender, _name, _price);\n    }\n\n    // fetch the number of articles in the contract\n    function getNumberOfArticles() public view returns (uint) {\n        return articleCounter;\n    }\n\n    // fetch and return all article IDs for articles still for sale\n    function getArticlesForSale() public view returns (uint[] memory) {\n        // prepare output array\n        uint[] memory articleIds = new uint[](articleCounter);\n\n        uint numberOfArticlesForSale = 0;\n        // iterate over articles\n        for(uint i = 1; i <= articleCounter;  i++) {\n            // keep the ID if the article is still for sale\n            if(articles[i].buyer == address(0x0)) {\n                articleIds[numberOfArticlesForSale] = articles[i].id;\n                numberOfArticlesForSale++;\n            }\n        }\n\n        // copy the articleIds array into a smaller forSale array\n        uint[] memory forSale = new uint[](numberOfArticlesForSale);\n        for(uint j = 0; j < numberOfArticlesForSale; j++) {\n            forSale[j] = articleIds[j];\n        }\n        return forSale;\n    }\n\n    function buyArticle(uint _id) payable public {\n        // we check whether there is an article for sale\n        require(articleCounter > 0);\n\n        // we check that the article exists\n        require(_id > 0 && _id <= articleCounter);\n\n        // we retrieve the article\n        Article storage article = articles[_id];\n\n        // we check that the article has not been sold yet\n        require(article.buyer == address(0x0));\n\n        // we don't allow the seller to buy his own article\n        require(msg.sender != article.seller);\n\n        // we check that the value sent corresponds to the price of the article\n        require(msg.value == article.price);\n\n        // keep buyer's information\n        article.buyer = msg.sender;\n\n        // the buyer can pay the seller\n        article.seller.transfer(msg.value);\n\n        // trigger the event\n        emit LogBuyArticle(_id, article.seller, article.buyer, article.name, article.price);\n    }\n}\n",
  "sourcePath": "/Users/mozzer/Documents/development/mozzer/source/solidity-etherium-contracts/contract/chainlist/contracts/ChainList.sol",
  "compiler": {
    "name": "solc",
    "version": "0.8.10+commit.fc410830.Emscripten.clang"
  },
  "schemaVersion": "3.4.3",
  "updatedAt": "2021-12-09T07:55:36.892Z",
  "networkType": "ethereum",
  "devdoc": {
    "kind": "dev",
    "methods": {},
    "version": 1
  },
  "userdoc": {
    "kind": "user",
    "methods": {},
    "version": 1
  }
}